:100000000C94D5000C942C070C9405070C94FD005F
:100010000C94FD000C94FD000C94FD000C94FD006C
:100020000C94FD000C94FD000C94FD000C94FD005C
:100030000C94FD000C94FD000C94FD000C94FD004C
:100040000C9426060C94FD000C9400050C94DA0424
:100050000C94FD000C94FD000C94FD000C94FD002C
:100060000C94FD000C94FD00A009B109E409010AFB
:10007000330A5E0ADC0A0000000023002600290083
:100080004E6F64652067726F75703A20004E6F6422
:10009000652069643A20005B656363656E7472690C
:1000A000636974696573206E6F76692076325D00CE
:1000B000486561646572206E6F74207265636F6756
:1000C0006E697A656400446F6E6500456363656EB2
:1000D00074726963697479203D200A005265736FF8
:1000E0006C766500446F6E6500536174757261745F
:1000F0006564004D0057616B657570005365744E03
:1001000065696768626F7273206E65696768626FA0
:1001100072733D0053657453746174757320737406
:10012000617475733D0053796E6300526573657435
:10013000004D6573736167652072656365697665F7
:10014000643A200000000000240027002A0000007C
:100150000000250028002B00040404040404040407
:100160000202020202020303030303030102040862
:100170001020408001020408102001020408102011
:100180000000000800020100000304070000000056
:10019000000000004F7574626F7820717565756599
:1001A0002066756C6C2E0000660B11241FBECFEF0D
:1001B000D8E0DEBFCDBF11E0A0E0B1E0EAE4F8E1B5
:1001C00002C005900D92AE31B107D9F723E0AEE140
:1001D000B1E001C01D92A936B207E1F710E0C5ED0C
:1001E000D0E004C02197FE010E94FB0BC43DD10763
:1001F000C9F70E9453070C94230C0C940000FC01D7
:10020000538D448D252F30E0842F90E0821B930B7B
:10021000541710F0CF96089501970895FC01918D21
:10022000828D981761F0828DDF01A80FB11D5D9658
:100230008C91928D9F5F9F73928F90E008958FEFC6
:100240009FEF0895FC01918D828D981731F0828D7A
:10025000E80FF11D858D90E008958FEF9FEF0895D1
:10026000FC01918D228D892F90E0805C9F4F821B35
:1002700091098F73992708958DEA92E00E943001C9
:1002800021E0892B09F420E0822F0895FC01848D60
:10029000DF01A80FB11DA35ABF4F2C91848D90E0B0
:1002A00001968F739927848FA689B7892C93A0898B
:1002B000B1898C9180648C93938D848D981306C042
:1002C0000288F389E02D80818F7D80830895EF92ED
:1002D000FF920F931F93CF93DF93EC0181E0888F00
:1002E0009B8D8C8D981305C0E889F989808185FDE7
:1002F00024C0F62E0B8D10E00F5F1F4F0F731127D8
:10030000E02E8C8DE8120CC00FB607FCFACFE889FE
:10031000F989808185FFF5CFCE010E944601F1CF9A
:100320008B8DFE01E80FF11DE35AFF4FF0820B8F1A
:10033000EA89FB898081806207C0EE89FF8960833A
:10034000E889F98980818064808381E090E0DF9191
:10035000CF911F910F91FF90EF900895CF93DF936E
:10036000EC01888D8823C9F0EA89FB89808185FDAD
:1003700005C0A889B9898C9186FD0FC00FB607FC0E
:10038000F5CF808185FFF2CFA889B9898C9185FF4F
:10039000EDCFCE010E944601E7CFDF91CF910895C6
:1003A00080E090E0892B29F00E943C0181110C949F
:1003B00000000895CF92DF92EF92FF920F931F9368
:1003C000CF93DF936C017A018B01C0E0D0E0CE15B2
:1003D000DF0589F0D8016D918D01D601ED91FC9179
:1003E0000190F081E02DC6010995892B11F47E0161
:1003F00002C02196ECCFC701DF91CF911F910F91E1
:10040000FF90EF90DF90CF90089508952CB5216074
:100410002CBD2A989EBD0DB407FEFDCF2EB530E051
:10042000322F22278EBD0DB407FEFDCF9EB52A9A2E
:100430008CB58E7F8CBDA901492BCA010895E8981F
:100440000E940602E89A08958627682F6295682719
:10045000062E669566956025062E66956025677062
:10046000082E892F669507946795902D8627069408
:100470006795902586270895CF9380E090E00E94AD
:10048000060280912D01853091F580E090EB0E946D
:100490000602682F80912C01811104C090912701E0
:1004A000911176C0E0912C0181E08E0F80932C0198
:1004B000F0E0E25DFE4F608380912A0190912B0174
:1004C0000E94240290932B0180932A018091300195
:1004D00020912C0190E0049630E0821793070CF4F1
:1004E00062C080912C01873408F05DC061C08091AA
:1004F0002D0187FF1BC0E091300180912D0191E01B
:10050000980F90932D01ED5F8E0FE82FF0E0E25DE4
:10051000FE4FC08180912A0190912B016C2F0E9487
:10052000240290932B0180932A012EC080912D01EB
:100530008330F1F054F48823A9F08130E9F48091FC
:100540002A0190912B01C92F1AC08930B9F08A3045
:1005500099F4C0912701909130018DEF891B809310
:100560002D010DC080912A0190912B01C82F07C049
:100570008DE092E80E940602CAEA01C0CDE28091B5
:100580002D018F5F80932D018C2F90E098540DC02A
:10059000E0912C0181E08E0F80932C01F0E0E25D70
:1005A000FE4F90837FCF8DE092E8CF910C940602AE
:1005B000CF91089586FD05C0807E909128019F719E
:1005C000890F80932F01E0912301F091240130974E
:1005D00011F081E009958FEF9FEF90932B018093AD
:1005E0002A0180912A0190912B01609127010E949C
:1005F000240290932B0180932A0186E080932D01A1
:100600008DE392E80C94060280912D01853091F5DE
:100610008091300120912C0190E0049630E0821707
:10062000930724F080912C01873420F184E080939B
:100630002D0180912A0190912B0190932B018093A1
:100640002A0180913001833430F081E090E0909372
:100650002B0180932A0180912F0186FF30C0809169
:100660002801982F9F719F3151F190912F01892777
:100670008F7129F180912D018430F9F410923001AD
:1006800010922C018FEF9FEF90932B0180932A0102
:1006900060912701662351F080912A0190912B01EE
:1006A0000E94240290932B0180932A0185E080937D
:1006B0002D018DED92E80E94060280E00895809160
:1006C0002A0190912B01892B49F4E0912301F091AB
:1006D0002401309719F080E009950BC08FEF9FEF50
:1006E000DC0180931F0190932001A0932101B0931E
:1006F000220181E0089580E090E00895E7E8F1E0CC
:1007000080E0919191118F5F91E0E739F907C9F786
:1007100008951F93CF93DF93E6E7F1E0DF0180E0D8
:1007200010E020E09D91992321F0291710F4182F53
:10073000292F8F5F8031B1F7A6E7B1E090E08D916E
:10074000882319F0981708F4982F21E0A638B207EB
:10075000B1F780E02191291301C08F5F21E0E638D5
:10076000F207C1F7823060F08091A7018F5F80931C
:10077000AB0160E086E0DF91CF911F910C94D7052B
:10078000809175018F5F8093AB01612F86E00E949D
:10079000D7058091A7018F5F8093AB01C7E9D1E0B6
:1007A0006991662329F0611719F086E00E94D70548
:1007B00081E0C73AD807A1F7DF91CF911F91089543
:1007C0000F931F93CF938C01C62F60FF14C0FC01C1
:1007D0008081882311F08D5F01C082E160E00E947A
:1007E000C906F8018081882311F08D5F01C082E184
:1007F00061E00E949906C1FF14C0F801808188233E
:1008000011F0835F01C083E160E00E94C906F80136
:100810008081882311F0835F01C083E161E00E9441
:100820009906C095F8018481C823C483CF911F9194
:100830000F9108951F93CF93DF93EC01162F60FF64
:1008400012C08881882311F08D5F01C082E160E0D1
:100850000E9499068881882311F08D5F01C082E192
:1008600061E00E94C90611FF12C08881882311F03F
:10087000835F01C083E160E00E949906888188233C
:1008800011F0835F01C083E161E00E94C9068C81A1
:10089000182B1C83DF91CF911F910895CF93C82F00
:1008A0008093860161E08DE493E0C0FF03C00E9465
:1008B0001A0402C00E94E00362E08DE493E0C1FFED
:1008C00003C00E941A0402C00E94E00361E084E5B4
:1008D00093E0C2FF03C00E941A0402C00E94E0031A
:1008E00062E084E593E0C3FF03C0CF910C941A0447
:1008F000CF910C94E0030E94150C8F929F92AF92BF
:10090000BF92CF92DF92EF92FF921F93CF93DF932C
:10091000C6E8D1E01FE01C1B8C2F810F0E944E0403
:100920001A920E94A6054B015C0184E6C82ED12CC8
:10093000E12CF12C0E94A605DC01CB018819990954
:10094000AA09BB09883E9340A105B10558F081E092
:10095000C81AD108E108F10828EE820E23E0921EA1
:10096000A11CB11CC114D104E104F10419F781E008
:10097000C637D80789F61092AC021092AB0280E11C
:10098000E7E9F1E0A7E8B1E001900D928A95E1F77F
:100990001092A7011092750180E0DF91CF911F9115
:1009A000FF90EF90DF90CF90BF90AF909F908F908F
:1009B0000C944E041F920F920FB60F9211242F9396
:1009C0003F934F935F936F937F938F939F93AF93D7
:1009D000BF93EF93FF938DEA92E00E944601FF914F
:1009E000EF91BF91AF919F918F917F916F915F91A7
:1009F0004F913F912F910F900FBE0F901F90189520
:100A00001F920F920FB60F9211242F938F939F93E3
:100A1000EF93FF93E091BD02F091BE028081E091DF
:100A2000C302F091C40282FD12C090818091C6027F
:100A30008F5F8F732091C702821751F0E091C60239
:100A4000F0E0E355FD4F958F8093C60201C0808191
:100A5000FF91EF919F918F912F910F900FBE0F906B
:100A60001F901895CF93DF93FC016491EC012196C0
:100A7000662361F0E091AD02F091AE020190F08149
:100A8000E02D8DEA92E00995CE01EECFDF91CF9176
:100A900008950895009769F0FC0101900020E9F79E
:100AA0003197AF01481B590BBC018DEA92E00C94C1
:100AB000DA0180E090E008958BE191E00C944A0522
:100AC0008F929F92AF92BF920F931F93CF93DF931A
:100AD000CDB7DEB7A1970FB6F894DEBF0FBECDBF7E
:100AE00019A2423008F44AE08E010F5D1F4F842E98
:100AF000912CA12CB12CA50194010E94C50BE62FCD
:100B0000B901CA0101501109EA3014F4E05D01C0D5
:100B1000E95CD801EC93232B242B252B61F7C8012A
:100B20000E944A05A1960FB6F894DEBF0FBECDBF56
:100B3000DF91CF911F910F91BF90AF909F908F90B9
:100B400008954AE00C9460050C944A053FB7F89468
:100B50008091650390916603A0916703B09168034B
:100B600026B5A89B05C02F3F19F00196A11DB11D08
:100B70003FBFBA2FA92F982F8827820F911DA11D43
:100B8000B11DBC01CD0142E0660F771F881F991F80
:100B90004A95D1F708952FB7F89460916103709149
:100BA000620380916303909164032FBF0895CF93F4
:100BB000482FC62F2091AC0230E0C90101966AE0AF
:100BC00070E00E94E70B6091AB0270E08617970718
:100BD00081F40E945C050E94CB050E94A10586E17C
:100BE00091E00E94A40584E991E00E94320580E032
:100BF0002BC0F901EE0FFF1FE159FD4F6C2F70E084
:100C000071836083F901EE0FFF1FED57FD4F50E038
:100C100051834083F901EE0FFF1FE956FD4F41E07C
:100C200050E05183408392E1929FD001939FB00D99
:100C30001124A554BE4FE9EAF1E001900D929A9576
:100C4000E1F78093AC0281E0CF9108951F920F925B
:100C50000FB60F9211242F933F938F939F93AF93CF
:100C6000BF938091610390916203A0916303B0915F
:100C700064033091600323E0230F2D3720F40196A5
:100C8000A11DB11D05C026E8230F0296A11DB11DAF
:100C9000209360038093610390936203A0936303A6
:100CA000B09364038091650390916603A0916703FC
:100CB000B09168030196A11DB11D809365039093C7
:100CC0006603A0936703B0936803BF91AF919F91B0
:100CD0008F913F912F910F900FBE0F901F901895FD
:100CE000833081F028F4813099F08230A1F00895AA
:100CF0008730A9F08830B9F08430D1F48091800039
:100D00008F7D03C0809180008F778093800008954D
:100D100084B58F7702C084B58F7D84BD089580919E
:100D2000B0008F7703C08091B0008F7D8093B000BA
:100D300008951F93CF93DF93282F30E0F901E058F7
:100D4000FE4F8491F901E459FE4FD491F901E85A1C
:100D5000FE4FC491CC23C9F0162F81110E9470065A
:100D6000EC2FF0E0EE0FFF1FE25BFE4FA591B49178
:100D70008FB7F894111105C09C91ED2FE095E923F0
:100D800002C0EC91ED2BEC938FBFDF91CF911F91BF
:100D90000895CF93DF9390E0FC01E459FE4F249136
:100DA000FC01E85AFE4F8491882361F190E0880F9E
:100DB000991FFC01EC5BFE4FC591D491FC01E25BF5
:100DC000FE4FA591B491611109C09FB7F894888135
:100DD000209582238883EC912E230BC0623061F42E
:100DE0009FB7F8943881822F809583238883EC9174
:100DF0002E2B2C939FBF06C08FB7F894E8812E2B23
:100E000028838FBFDF91CF9108951F920F920FB665
:100E10000F9211242F933F934F935F936F937F9380
:100E20008F939F93AF93BF93EF93FF93E091020152
:100E3000F09103010995FF91EF91BF91AF919F91BF
:100E40008F917F916F915F914F913F912F910F9073
:100E50000FBE0F901F9018951F920F920FB60F9212
:100E600011242F933F934F935F936F937F938F93AF
:100E70009F93AF93BF93EF93FF93E0910001F091A5
:100E800001010995FF91EF91BF91AF919F918F91D2
:100E90007F916F915F914F913F912F910F900FBE76
:100EA0000F901F901895789484B5826084BD84B5A6
:100EB000816084BD85B5826085BD85B5816085BD55
:100EC00080916E00816080936E001092810080910D
:100ED0008100826080938100809181008160809395
:100EE0008100809180008160809380008091B100BA
:100EF00084608093B1008091B00081608093B000E5
:100F000080917A00846080937A0080917A00826078
:100F100080937A0080917A00816080937A0080913A
:100F20007A00806880937A001092C10080E290E09D
:100F30000E94BD0B8F718093A80181E290E00E9416
:100F4000BD0B80932901E091BD02F091BE0282E0C9
:100F50008083E091BD02F091BE021082E091B9025F
:100F6000F091BA021082E091BB02F091BC0280E1E4
:100F700080831092C502E091C102F091C20286E026
:100F80008083E091BF02F091C00280818061808304
:100F9000E091BF02F091C002808188608083E0917F
:100FA000BF02F091C002808180688083E091BF021F
:100FB000F091C00280818F7D808380E197E2A0E084
:100FC000B0E08093B1029093B202A093B302B093C9
:100FD000B4020E945C050E94CB050E94A10586E137
:100FE00091E00E94A40587E990E00E9432050E94EA
:100FF0005C050E94CB050E94A10586E191E00E945C
:10100000A4058DE890E00E9432056091A80170E08F
:1010100080E090E04AE00E94600589E191E00E9452
:10102000A4050E945C050E94CB050E94A10586E1F3
:1010300091E00E94A40580E890E00E943205609152
:10104000290170E080E090E04AE00E94600589E1BB
:1010500091E00E94A4050E947D0480912901909155
:10106000A801909328018093270180E496E0909353
:101070002601809325012A9A229A61E08AE00E9443
:10108000990661E08AE00E94C90661E08BE00E9457
:10109000C90660E08CE00E94C90661E08DE00E9414
:1010A000C90680E58CBD8DB581608DBD60E082E0B4
:1010B0000E94C90661E082E00E94990680E090E00B
:1010C0000E94060285E092E80E94060280E098EB0A
:1010D0000E940602C2E8D1E00EE611E06AE5E62EC3
:1010E00061E0F62EFE018491F801B490F701D490EE
:1010F000D11005C080E090E00E940602F3CF81117C
:101100000E9470068D2D90E0880F991F8A589F4F7E
:10111000FC01A591B4918C91B82261F387EE90E81F
:101120000E940602809125019091260190560E940E
:10113000060286E096EC0E94060282EA94E90E948A
:1011400006028CEA92EC0E940602C0912701CC2391
:1011500041F083E89AEC0E9406028C2F90E09E6C8E
:1011600006C08BE89AEC0E9406028DE29EEC0E947B
:10117000060283E894EC0E94060280E598E90E944A
:10118000060287E79CEC0E94060280E090EE0E9437
:10119000060280E098EC0E94060289E490EC0E942E
:1011A000060284E080932D01809128018F7199F0CF
:1011B0008CE392E09093010180930001809169009B
:1011C0008C7F80936900E89A30E1F32E42E1E42EAF
:1011D0000AE010E027C0E89889E495E090930101C7
:1011E00080930001F1CF80912A0190912B01892BEE
:1011F000F1F080915F03882309F444C0C0915D033E
:10120000D0915E030E94CB05CE01861B970B8136E1
:10121000EAEE9E0728F0819510925F03811134C099
:101220000E94D0010E9404038111DDCFE2CF4091E2
:10123000300150E061E371E089EA91E00E941A0C0C
:1012400080912F0185FF07C0C0912F01C095CC1F51
:10125000CC27CC1F01C0C0E00E940403CC2309F4BA
:101260003FC02091A90190914A038091AA0132E0E8
:10127000309330012093310190933201806C0E94B1
:10128000DA022EC080E0C8CFC091AB028091AC02E0
:10129000C81731F2D0E0FE01EE0FFF1FE956FD4FF7
:1012A000A080B180FE01EE0FFF1FE159FD4FD080FD
:1012B000FE01EE0FFF1FED57FD4F908080912D0135
:1012C000853019F00E940403F9CF80912C0181111F
:1012D000F9CF80E090E00E941F0290FFC5C1F2CFDD
:1012E0002091AA01E7E9F1E080E03191332311F088
:1012F00091E0231390E0892B91E0E73AF907A9F7F1
:10130000811103C02F3109F074CF0E945C050E9447
:10131000CB050E94A10586E191E00E94A40581E32E
:1013200091E00E943205E091A9018E2F90E0873074
:10133000910508F08AC1FC01EC5CFF4F0C94FB0B9B
:101340000E945C050E94CB050E94A10586E191E008
:101350000E94A4058BE291E00E9432050E947D0468
:1013600048CF0E945C050E94CB050E94A10586E142
:1013700091E00E94A40586E291E00E94320560910E
:10138000A70170E080E090E04AE00E94600589E1FA
:1013900091E00E94A405C091A801E4E1CE9FE00184
:1013A000112481E0209709F480E080935F03882373
:1013B00009F41FCF0E94CB052197C60FD71FD093EA
:1013C0005E03C0935D0315CF0E945C050E94CB05B0
:1013D0000E94A10586E191E00E94A40584E191E0CC
:1013E0000E9432056091AB0170E080E090E04AE03D
:1013F0000E94600589E191E00E94A4058091AB0103
:101400004DC00E945C050E94CB050E94A10586E1AB
:1014100091E00E94A4058CEF90E00E943205CBEA97
:10142000D1E0699170E080E090E04AE00E946005C0
:1014300089E191E00E94A405F1E0CB3BDF0789F749
:10144000EBEAF1E0A7E9B1E08F2D01900D928A95CA
:10145000E1F7EBEAF1E0A7E8B1E08F2D01900D9202
:101460008A95E1F7C6CE809186018111C2CE0E9495
:101470005C050E94CB050E94A10586E191E00E94D7
:10148000A40585EF90E00E94320560E084E00E94B0
:10149000D7050E947E03823020F081E00E944E0436
:1014A000A8CE82E00E944E048091A7018F5F8093B6
:1014B000AB0160E085E00E94D7059BCE0E945C05F1
:1014C0000E94CB050E94A10586E191E00E94A4053F
:1014D00083EF90E00E94320580918601823020F0F7
:1014E000823009F43FC085CE8091AB019091A70175
:1014F000981740F48093A701E091AA01F0E0EA5820
:10150000FE4F80830E947E03823068F40E947E0337
:10151000813009F06ECE8091A7018F5F8093AB017F
:10152000E7E8F1E00EC08091AA01E7E8F1E09081E0
:10153000981301C01082319621E0E739F207B9F71C
:10154000E5CFC191C11105C081E0E739F807C9F7BE
:10155000CC2D6C2F85E00E94D70582E00E944E04BE
:10156000CC2E47CE0E945C050E94CB050E94A105AF
:1015700086E191E00E94A40589EE90E00E94320588
:1015800083E00E944E048091AB018093750190919D
:10159000A701981710F48093A7010E9489030E9465
:1015A0005C050E94CB050E94A10586E191E00E94A6
:1015B000A40584EE90E045C00E945C050E94CB0526
:1015C0000E94A10586E191E00E94A4058CED90E0C7
:1015D0000E94320580918601823009F00ACE809106
:1015E000AB01809375019091A701981710F4809337
:1015F000A7010E9489030E945C050E94CB050E94FE
:10160000A10586E191E00E94A4058BEC90E00E9488
:1016100032056091A70170E080E090E04AE00E940E
:10162000600589E191E00E94A4050E945C050E948A
:10163000CB050E94A10586E191E00E94A40586ECFD
:1016400090E00E94320584E029CF0E945C050E9450
:10165000CB050E94A10586E191E00E94A40580EBE4
:1016600090E00E943205C5CDEC9EB001ED9E700D5C
:101670001124EB01C554DE4F8DE092E80E941F0259
:1016800084E080932D01988290904A039982A5016D
:1016900055274E5F5F4FBE0181E391E00E941A0C17
:1016A000A394A394A0923001DD2019F08D2D8064C5
:1016B00001C0892D0E94DA028091AB0290E0019670
:1016C000B8010E94E70B8093AB02AACDCF93DF93C2
:1016D000EDEAF2E01382128288EE93E0A0E0B0E03F
:1016E00084839583A683B78388E091E09183808388
:1016F00085EC90E09587848784EC90E097878687D7
:1017000080EC90E0918B808B81EC90E0938B828BCE
:1017100082EC90E0958B848B86EC90E0978B868BA7
:10172000118E128E138E148E10925F03EDE4F3E08F
:1017300082E08083138214821582168283E087837D
:1017400012861386148615861786168681E293E024
:101750000E94BD0BC82F80E293E00E94BD0BD82FE2
:1017600080E290E00E94BD0BEAE4F3E08F71808399
:10177000D183C283DF91CF910895F999FECF92BDB5
:1017800081BDF89A992780B50895A1E21A2EAA1B67
:10179000BB1BFD010DC0AA1FBB1FEE1FFF1FA21721
:1017A000B307E407F50720F0A21BB30BE40BF50B1E
:1017B000661F771F881F991F1A9469F760957095A7
:1017C000809590959B01AC01BD01CF01089597FBD9
:1017D000072E16F4009407D077FD09D00E94010C63
:1017E00007FC05D03EF4909581959F4F0895709524
:1017F00061957F4F0895EE0FFF1F0590F491E02D46
:101800000994AA1BBB1B51E107C0AA1FBB1FA61747
:10181000B70710F0A61BB70B881F991F5A95A9F799
:1018200080959095BC01CD01089581E090E0F894F9
:101830000C94230CFB01DC0102C001900D9241507D
:0A1840005040D8F70895F894FFCF48
:10184A0049054905000000006701DA01FF00AE0101
:0E185A0030010E0122016D733A20000D0A00CC
:00000001FF
