:100000000C94BE000C94AF060C9488060C94E60089
:100010000C94E6000C94E6000C94E6000C94E600C8
:100020000C94E6000C94E6000C94E6000C94E600B8
:100030000C94E6000C94E6000C94E6000C94E600A8
:100040000C94A9050C94E6000C9483040C945D04B4
:100050000C94E6000C94E6000C94E6000C94E60088
:100060000C94E6000C94E60000000000230026003B
:1000700029004E6F64652067726F75703A20004EDC
:100080006F64652069643A20005B73617475726106
:1000900074696F6E5D0046696E64206E656967689D
:1000A000626F757200486561646572206E6F7420BE
:1000B0007265636F676E697A656400536174757207
:1000C00061746564004D0057616B65757000536520
:1000D000744E65696768626F7273206E65696768E0
:1000E000626F72733D00536574537461747573204D
:1000F0007374617475733D0053796E630052657358
:100100006574004D65737361676520726563656929
:100110007665643A200000000000240027002A00D1
:1001200000000000250028002B000404040404043F
:100130000404020202020202030303030303010296
:100140000408102040800102040810200102040865
:100150001020000000080002010000030407000056
:100160000000000000004F7574626F7820717565A3
:1001700075652066756C6C2E0000BA0A11241FBECE
:10018000CFEFD8E0DEBFCDBF11E0A0E0B1E0E2EFFD
:10019000F6E102C005900D92AE31B107D9F723E028
:1001A000AEE1B1E001C01D92A735B207E1F710E062
:1001B000CEEBD0E004C02197FE010E94630BCD3B43
:1001C000D107C9F70E94D6060C94770B0C94000057
:1001D000FC01538D448D252F30E0842F90E0821B4D
:1001E000930B541710F0CF96089501970895FC01D2
:1001F000918D828D981761F0828DDF01A80FB11D5E
:100200005D968C91928D9F5F9F73928F90E0089581
:100210008FEF9FEF0895FC01918D828D981731F03B
:10022000828DE80FF11D858D90E008958FEF9FEF8F
:100230000895FC01918D228D892F90E0805C9F4F65
:10024000821B91098F73992708958BE992E00E9490
:10025000190121E0892B09F420E0822F0895FC0187
:10026000848DDF01A80FB11DA35ABF4F2C91848D3F
:1002700090E001968F739927848FA689B7892C9374
:10028000A089B1898C9180648C93938D848D98130F
:1002900006C00288F389E02D80818F7D80830895D8
:1002A000EF92FF920F931F93CF93DF93EC0181E0C6
:1002B000888F9B8D8C8D981305C0E889F989808182
:1002C00085FD24C0F62E0B8D10E00F5F1F4F0F73BE
:1002D0001127E02E8C8DE8120CC00FB607FCFACF68
:1002E000E889F989808185FFF5CFCE010E942F0131
:1002F000F1CF8B8DFE01E80FF11DE35AFF4FF08225
:100300000B8FEA89FB898081806207C0EE89FF89B3
:100310006083E889F98980818064808381E090E04E
:10032000DF91CF911F910F91FF90EF900895CF93A0
:10033000DF93EC01888D8823C9F0EA89FB898081ED
:1003400085FD05C0A889B9898C9186FD0FC00FB6BF
:1003500007FCF5CF808185FFF2CFA889B9898C9100
:1003600085FFEDCFCE010E942F01E7CFDF91CF9126
:10037000089580E090E0892B29F00E9425018111E9
:100380000C9400000895CF92DF92EF92FF920F93AA
:100390001F93CF93DF936C017A018B01C0E0D0E013
:1003A000CE15DF0589F0D8016D918D01D601ED9153
:1003B000FC910190F081E02DC6010995892B11F483
:1003C0007E0102C02196ECCFC701DF91CF911F9132
:1003D0000F91FF90EF90DF90CF90089508952CB586
:1003E00021602CBD2A989EBD0DB407FEFDCF2EB511
:1003F00030E0322F22278EBD0DB407FEFDCF9EB513
:100400002A9A8CB58E7F8CBDA901492BCA0108950B
:10041000E8980E94EF01E89A08958627682F629570
:100420006827062E669566956025062E66956025DA
:100430006770082E892F669507946795902D8627FB
:1004400006946795902586270895CF9380E090E0E5
:100450000E94EF0180912D01853091F580E090EBB5
:100460000E94EF01682F80912C01811104C09091AE
:100470002701911176C0E0912C0181E08E0F8093CD
:100480002C01F0E0E25DFE4F608380912A019091A3
:100490002B010E940D0290932B0180932A018091E1
:1004A000300120912C0190E0049630E082179307F0
:1004B0000CF462C080912C01873408F05DC061C0EB
:1004C00080912D0187FF1BC0E091300180912D01AB
:1004D00091E0980F90932D01ED5F8E0FE82FF0E0E3
:1004E000E25DFE4FC08180912A0190912B016C2F1B
:1004F0000E940D0290932B0180932A012EC08091BF
:100500002D018330F1F054F48823A9F08130E9F40F
:1005100080912A0190912B01C92F1AC08930B9F01E
:100520008A3099F4C0912701909130018DEF891B99
:1005300080932D010DC080912A0190912B01C82F2D
:1005400007C08DE092E80E94EF01CAEA01C0CDE247
:1005500080912D018F5F80932D018C2F90E0985416
:100560000DC0E0912C0181E08E0F80932C01F0E012
:10057000E25DFE4F90837FCF8DE092E8CF910C94A7
:10058000EF01CF91089586FD05C0807E90912801EE
:100590009F71890F80932F01E0912301F091240135
:1005A000309711F081E009958FEF9FEF90932B0129
:1005B00080932A0180912A0190912B01609127015B
:1005C0000E940D0290932B0180932A0186E0809374
:1005D0002D018DE392E80C94EF0180912D0185307F
:1005E00091F58091300120912C0190E0049630E04B
:1005F0008217930724F080912C01873420F184E046
:1006000080932D0180912A0190912B0190932B01D1
:1006100080932A0180913001833430F081E090E0B2
:1006200090932B0180932A0180912F0186FF30C087
:1006300080912801982F9F719F3151F190912F0146
:1006400089278F7129F180912D018430F9F410925E
:10065000300110922C018FEF9FEF90932B0180932C
:100660002A0160912701662351F080912A0190911F
:100670002B010E940D0290932B0180932A0185E0AB
:1006800080932D018DED92E80E94EF0180E00895A6
:1006900080912A0190912B01892B49F4E09123014B
:1006A000F0912401309719F080E009950BC08FEF8D
:1006B0009FEFDC0180931F0190932001A093210103
:1006C000B093220181E0089580E090E00895E6E78C
:1006D000F1E080E0919191118F5F91E0E638F907A8
:1006E000C9F708950F931F93CF938C01C62F60FF16
:1006F00014C0FC018081882311F08D5F01C082E16C
:1007000060E00E944C06F8018081882311F08D5F23
:1007100001C082E161E00E941C06C1FF14C0F80123
:100720008081882311F0835F01C083E160E00E9433
:100730004C06F8018081882311F0835F01C083E1BA
:1007400061E00E941C06C095F8018481C823C4831F
:10075000CF911F910F9108951F93CF93DF93EC01D9
:10076000162F60FF12C08881882311F08D5F01C0B1
:1007700082E160E00E941C068881882311F08D5F71
:1007800001C082E161E00E944C0611FF12C0888125
:10079000882311F0835F01C083E160E00E941C06A2
:1007A0008881882311F0835F01C083E161E00E94AA
:1007B0004C068C81182B1C83DF91CF911F910895DB
:1007C000CF93C82F8093750161E08BE393E0C0FF66
:1007D00003C00E94AC0302C00E94720362E08BE37C
:1007E00093E0C1FF03C00E94AC0302C00E947203E9
:1007F00061E082E493E0C2FF03C00E94AC0302C048
:100800000E94720362E082E493E0C3FF03C0CF91D1
:100810000C94AC03CF910C9472030E94690B8F92DD
:100820009F92AF92BF92CF92DF92EF92FF92CF93BF
:10083000CFE08C2F0E94E0030E9429054B015C0150
:1008400084E6C82ED12CE12CF12C0E942905DC0174
:10085000CB0188199909AA09BB09883E9340A105D3
:10086000B10558F021E0C21AD108E108F10888EE7C
:10087000880E83E0981EA11CB11CC114D104E104B0
:10088000F10419F7C150A8F610929A021092990239
:1008900080E1E6E8F1E0A6E7B1E001900D928A95EB
:1008A000E1F780E0CF91FF90EF90DF90CF90BF9085
:1008B000AF909F908F900C94E0031F920F920FB611
:1008C0000F9211242F933F934F935F936F937F93D6
:1008D0008F939F93AF93BF93EF93FF938BE992E036
:1008E0000E942F01FF91EF91BF91AF919F918F9146
:1008F0007F916F915F914F913F912F910F900FBE1C
:100900000F901F9018951F920F920FB60F921124FF
:100910002F938F939F93EF93FF93E091AB02F0910E
:10092000AC028081E091B102F091B20282FD12C06E
:1009300090818091B4028F5F8F732091B5028217EE
:1009400051F0E091B402F0E0E556FD4F958F8093B1
:10095000B40201C08081FF91EF919F918F912F91FF
:100960000F900FBE0F901F901895CF93DF93FC014F
:100970006491EC012196662361F0E0919B02F09175
:100980009C020190F081E02D8BE992E00995CE0167
:10099000EECFDF91CF9108950895009769F0FC01A3
:1009A00001900020E9F73197AF01481B590BBC01BA
:1009B0008BE992E00C94C30180E090E008958BE114
:1009C00091E00C94CD048F929F92AF92BF920F93BF
:1009D0001F93CF93DF93CDB7DEB7A1970FB6F894EF
:1009E000DEBF0FBECDBF19A2423008F44AE08E012F
:1009F0000F5D1F4F842E912CA12CB12CA5019401C9
:100A00000E94190BE62FB901CA0101501109EA3001
:100A100014F4E05D01C0E95CD801EC93232B242B96
:100A2000252B61F7C8010E94CD04A1960FB6F8945A
:100A3000DEBF0FBECDBFDF91CF911F910F91BF9051
:100A4000AF909F908F9008954AE00C94E3040C942B
:100A5000CD043FB7F8948091530390915403A09133
:100A60005503B091560326B5A89B05C02F3F19F03A
:100A70000196A11DB11D3FBFBA2FA92F982F88271E
:100A8000820F911DA11DB11DBC01CD0142E0660F79
:100A9000771F881F991F4A95D1F708952FB7F894AB
:100AA00060914F03709150038091510390915203D4
:100AB0002FBF0895CF93482FC62F20919A0230E080
:100AC000C90101966AE070E00E943B0B60919902B7
:100AD00070E08617970781F40E94DF040E944E059C
:100AE0000E94240586E191E00E94270586E691E0B8
:100AF0000E94B50480E02BC0F901EE0FFF1FE35AFE
:100B0000FD4F6C2F70E071836083F901EE0FFF1FC2
:100B1000EF58FD4F50E051834083F901EE0FFF1F66
:100B2000EB57FD4F42E050E05183408392E1929FAA
:100B3000D001939FB00D1124A755BE4FE7E9F1E016
:100B400001900D929A95E1F780939A0281E0CF91FE
:100B500008951F920F920FB60F9211242F933F9377
:100B60008F939F93AF93BF9380914F0390915003C6
:100B7000A0915103B091520330914E0323E0230F13
:100B80002D3720F40196A11DB11D05C026E8230FC5
:100B90000296A11DB11D20934E0380934F039093A5
:100BA0005003A0935103B09352038091530390914B
:100BB0005403A0915503B09156030196A11DB11D98
:100BC0008093530390935403A0935503B09356031B
:100BD000BF91AF919F918F913F912F910F900FBE39
:100BE0000F901F901895833081F028F4813099F090
:100BF0008230A1F008958730A9F08830B9F08430B0
:100C0000D1F4809180008F7D03C0809180008F7728
:100C100080938000089584B58F7702C084B58F7D5E
:100C200084BD08958091B0008F7703C08091B0009B
:100C30008F7D8093B00008951F93CF93DF93282F6B
:100C400030E0F901EE5AFE4F8491F901E25CFE4F6B
:100C5000D491F901E65DFE4FC491CC23C9F0162F63
:100C600081110E94F305EC2FF0E0EE0FFF1FE05E14
:100C7000FE4FA591B4918FB7F894111105C09C91C6
:100C8000ED2FE095E92302C0EC91ED2BEC938FBFA3
:100C9000DF91CF911F910895CF93DF9390E0FC01F6
:100CA000E25CFE4F2491FC01E65DFE4F84918823B7
:100CB00061F190E0880F991FFC01EA5EFE4FC5913B
:100CC000D491FC01E05EFE4FA591B491611109C081
:100CD0009FB7F8948881209582238883EC912E23F6
:100CE0000BC0623061F49FB7F8943881822F8095F1
:100CF00083238883EC912E2B2C939FBF06C08FB744
:100D0000F894E8812E2B28838FBFDF91CF9108952F
:100D10001F920F920FB60F9211242F933F934F9370
:100D20005F936F937F938F939F93AF93BF93EF9353
:100D3000FF93E0910201F09103010995FF91EF917A
:100D4000BF91AF919F918F917F916F915F914F91E3
:100D50003F912F910F900FBE0F901F9018951F92EB
:100D60000F920FB60F9211242F933F934F935F93DF
:100D70006F937F938F939F93AF93BF93EF93FF9363
:100D8000E0910001F09101010995FF91EF91BF9170
:100D9000AF919F918F917F916F915F914F913F9113
:100DA0002F910F900FBE0F901F901895789484B5D7
:100DB000826084BD84B5816084BD85B5826085BD57
:100DC00085B5816085BD80916E00816080936E00E5
:100DD00010928100809181008260809381008091D7
:100DE0008100816080938100809180008160809388
:100DF00080008091B10084608093B1008091B00048
:100E000081608093B00080917A00846080937A0042
:100E100080917A00826080937A0080917A0081606C
:100E200080937A0080917A00806880937A00109293
:100E3000C10080E290E00E94110B8F7180939601B7
:100E400081E290E00E94110B80932901E091AB02B6
:100E5000F091AC0282E08083E091AB02F091AC02B1
:100E60001082E091A702F091A8021082E091A902FD
:100E7000F091AA0280E180831092B302E091AF0268
:100E8000F091B00286E08083E091AD02F091AE0275
:100E9000808180618083E091AD02F091AE0280811B
:100EA00088608083E091AD02F091AE02808180681D
:100EB0008083E091AD02F091AE0280818F7D8083CE
:100EC00080E197E2A0E0B0E080939F029093A002BF
:100ED000A093A102B093A2020E94DF040E944E05DB
:100EE0000E94240586E191E00E94270589E890E0B0
:100EF0000E94B5040E94DF040E944E050E94240552
:100F000086E191E00E9427058FE790E00E94B504FA
:100F10006091960170E080E090E04AE00E94E30476
:100F200089E191E00E9427050E94DF040E944E059E
:100F30000E94240586E191E00E94270582E790E067
:100F40000E94B5046091290170E080E090E04AE0E1
:100F50000E94E30489E191E00E9427050E940F04AA
:100F60008091290190919601909328018093270107
:100F700080E496E090932601809325012A9A229A94
:100F800061E08AE00E941C0661E08AE00E944C0653
:100F900061E08BE00E944C0660E08CE00E944C0611
:100FA00061E08DE00E944C0680E58CBD8DB58160CE
:100FB0008DBD60E082E00E944C0661E082E00E940C
:100FC0001C0680E090E00E94EF0185E092E80E941C
:100FD000EF0180E098EB0E94EF01C4E5D1E000E46E
:100FE00011E0ECE2EE2EE1E0FE2EFE018491F8012C
:100FF000B490F701D490D11005C080E090E00E9439
:10100000EF01F3CF81110E94F3058D2D90E0880F41
:10101000991F88599F4FFC01A591B4918C91B822DA
:1010200061F387EE90E80E94EF0180912501909195
:10103000260190560E94EF0186E096EC0E94EF0197
:1010400082EA94E90E94EF018CEA92EC0E94EF019F
:10105000C0912701CC2341F083E89AEC0E94EF0174
:101060008C2F90E09E6C06C08BE89AEC0E94EF01FA
:101070008DE29EEC0E94EF0183E894EC0E94EF0168
:1010800080E598E90E94EF0187E79CEC0E94EF0160
:1010900080E090EE0E94EF0180E098EC0E94EF016A
:1010A00089E490EC0E94EF0184E080932D0180910F
:1010B00028018F7199F085E292E09093010180936D
:1010C0000001809169008C7F80936900E89A50E16B
:1010D000F52E62E1E62E0AE010E027C0E8988CECDD
:1010E00094E09093010180930001F1CF80912A0157
:1010F00090912B01892BF1F080914D03882309F405
:1011000044C0C0914B03D0914C030E944E05CE01C8
:10111000861B970B81362AEE920728F08195109254
:101120004D03811134C00E94B9010E94ED0281116A
:10113000DDCFE2CF4091300150E061E371E087E91B
:1011400091E00E946E0B80912F0185FF07C0C09136
:101150002F01C095CC1FCC27CC1F01C0C0E00E943E
:10116000ED02CC2309F43FC0209197019091380300
:101170008091980132E030933001209331019093B7
:101180003201806C0E94C3022EC080E0C8CFC091A3
:10119000990280919A02C81731F2D0E0FE01EE0F59
:1011A000FF1FEB57FD4FA080B180FE01EE0FFF1F28
:1011B000E35AFD4FD080FE01EE0FFF1FEF58FD4FA9
:1011C000908080912D01853019F00E94ED02F9CFB9
:1011D00080912C018111F9CF80E090E00E940802FB
:1011E00090FF96C1F2CF3090980186E8A82E81E05A
:1011F000B82EE501D12C432C512C612C712C4E01C1
:101200009881992311F081E0391280E0D82A4AE0D0
:10121000C301B2010E94E30489E191E00E94270525
:101220002196F401608170E080E090E04AE00E9445
:10123000E30489E191E00E942705F1E0C639DF0768
:10124000F1F6D11005C0809198018F3109F054CF8B
:101250000E94DF040E944E050E94240586E191E071
:101260000E94270583E091E00E94B50480919701D8
:10127000823009F447C028F4882361F08130D9F026
:1012800038C1843009F49FC008F459C0853009F48E
:10129000BEC02FC10E94DF040E944E050E9424059B
:1012A00086E191E00E9427058DEF90E00E94B50451
:1012B0000E940F0421CF0E94DF040E944E050E946D
:1012C000240586E191E00E94270588EF90E00E94C6
:1012D000B504C091960124E1C29FE001112481E090
:1012E000209709F480E080934D03882309F404CF0C
:1012F0000E944E052197C60FD71FD0934C03C09371
:101300004B03FACE0E94DF040E944E050E94240582
:1013100086E191E00E94270586EE90E00E94B504E8
:101320006091990170E080E090E04AE00E94E3045F
:1013300089E191E00E94270580919901D7C00E9420
:10134000DF040E944E050E94240586E191E00E9480
:1013500027058EEC90E00E94B504C9E9D1E06991BF
:1013600070E080E090E04AE00E94E30489E191E0CF
:101370000E94270581E0C93AD80789F7E9E9F1E039
:10138000A6E8B1E08F2D01900D928A95E1F7E9E989
:10139000F1E0A6E7B1E08F2D01900D928A95E1F77B
:1013A000F50161915F0170E080E090E04AE00E9409
:1013B000E30489E191E00E942705F6E9AF16F1E028
:1013C000BF0671F799CE80917501811195CE0E946B
:1013D000DF040E944E050E94240586E191E00E94F0
:1013E000270587EC90E00E94B50460E084E00E944D
:1013F0005A050E946703823010F081E077C082E0D6
:101400000E94E00360E085E00E945A0575CE0E94CC
:10141000DF040E944E050E94240586E191E00E94AF
:10142000270585EC90E00E94B5048091750182301B
:1014300098F0823009F060CE0E94DF040E944E05D1
:101440000E94240586E191E00E9427058BEB90E045
:101450000E94B50483E04AC00E9467038230C0F452
:101460000E946703813009F047CE0E94DF040E948A
:101470004E050E94240586E191E00E94270586E939
:1014800090E00E94B50446E7A42E41E0B42E0EC0C1
:1014900080919801E6E7F1E09081981301C01082F5
:1014A000319621E0E638F207B9F7DACFF50160812D
:1014B00070E080E090E04AE00E94E30489E191E07E
:1014C0000E942705F501C1915F01C11106C0F6E830
:1014D000AF16F1E0BF0651F7CC2D6C2F85E00E94CE
:1014E0005A0582E00E94E003CC2E06CE0E94E00363
:1014F00003CE0E94DF040E944E050E94240586E16F
:1015000091E00E94270585EA90E00E94B504F4CDA1
:10151000EC9EB001ED9E700D1124EB01C755DE4F1E
:101520008DE092E80E94080284E080932D01988269
:10153000909038039982A50155274E5F5F4FBE01F9
:1015400081E391E00E946E0BA394A394A0923001DA
:10155000DD2019F08D2D806401C0892D0E94C30209
:101560008091990290E00196B8010E943B0B809314
:101570009902D9CDCF93DF93EBE9F2E01382128287
:1015800088EE93E0A0E0B0E084839583A683B783E0
:1015900088E091E09183808385EC90E09587848753
:1015A00084EC90E09787868780EC90E0918B808B2D
:1015B00081EC90E0938B828B82EC90E0958B848B16
:1015C00086EC90E0978B868B118E128E138E148E84
:1015D00010924D03EBE3F3E082E0808313821482E8
:1015E0001582168283E087831286138614861586F9
:1015F0001786168681E293E00E94110BC82F80E2C5
:1016000093E00E94110BD82F80E290E00E94110B12
:10161000E8E3F3E08F718083D183C283DF91CF91C0
:101620000895F999FECF92BD81BDF89A992780B5AA
:101630000895A1E21A2EAA1BBB1BFD010DC0AA1F13
:10164000BB1FEE1FFF1FA217B307E407F50720F02B
:10165000A21BB30BE40BF50B661F771F881F991FA6
:101660001A9469F760957095809590959B01AC01EF
:10167000BD01CF01089597FB072E16F4009407D003
:1016800077FD09D00E944F0B07FC05D03EF49095E2
:1016900081959F4F0895709561957F4F0895AA1B7E
:1016A000BB1B51E107C0AA1FBB1FA617B70710F04D
:1016B000A61BB70B881F991F5A95A9F7809590957F
:1016C000BC01CD010895EE0FFF1F0590F491E02DB0
:1016D000099481E090E0F8940C94770BFB01DC0115
:1016E00002C001900D9241505040D8F70895F894EF
:0216F000FFCF2A
:1016F200CC04CC04000000005001C301E8009701B3
:0E1702001901F7000B016D733A20000D0A006B
:00000001FF
