:100000000C94C8000C942E070C9407070C94F00075
:100010000C94F0000C94F0000C94F0000C94F000A0
:100020000C94F0000C94F0000C94F0000C94F00090
:100030000C94F0000C94F0000C94F0000C94F00080
:100040000C9428060C94F0000C9402050C94DC042B
:100050000C94F0000C94F0000C94F0000C94F00060
:100060000C94F0000C94F000A209B309F409110AF1
:10007000430A6E0AD30A000000002300260029006C
:100080004E6F64652067726F75703A20004E6F6422
:10009000652069643A20005B63656E7465725D007B
:1000A000486561646572206E6F74207265636F6766
:1000B0006E697A6564005265736F6C766500536192
:1000C00074757261746564004D0057616B6575707D
:1000D000005365744E65696768626F7273206E6560
:1000E000696768626F72733D00536574537461741D
:1000F0007573207374617475733D00456363656E39
:1001000074726963697479203D200A0053796E63C3
:10011000005265736574004D657373616765207285
:10012000656365697665643A20000000000024007C
:1001300027002A0000000000250028002B000404EE
:10014000040404040404020202020202030303037F
:10015000030301020408102040800102040810205B
:100160000102040810200000000800020100000342
:10017000040700000000000000004F7574626F78F3
:100180002071756575652066756C6C2E0000360BE8
:1001900011241FBECFEFD8E0DEBFCDBF11E0A0E03D
:1001A000B1E0EAEEF7E102C005900D92AE31B10781
:1001B000D9F723E0AEE1B1E001C01D92A936B20744
:1001C000E1F710E0C8ECD0E004C02197FE010E94E6
:1001D000CB0BC73CD107C9F70E9455070C94F30B12
:1001E0000C940000FC01538D448D252F30E0842FAA
:1001F00090E0821B930B541710F0CF96089501974F
:100200000895FC01918D828D981761F0828DDF0138
:10021000A80FB11D5D968C91928D9F5F9F73928FF9
:1002200090E008958FEF9FEF0895FC01918D828DEE
:10023000981731F0828DE80FF11D858D90E00895BB
:100240008FEF9FEF0895FC01918D228D892F90E013
:10025000805C9F4F821B91098F73992708958DEAC7
:1002600092E00E94230121E0892B09F420E0822FF3
:100270000895FC01848DDF01A80FB11DA35ABF4F63
:100280002C91848D90E001968F739927848FA68995
:10029000B7892C93A089B1898C9180648C93938DBC
:1002A000848D981306C00288F389E02D80818F7DAC
:1002B00080830895EF92FF920F931F93CF93DF9364
:1002C000EC0181E0888F9B8D8C8D981305C0E889A7
:1002D000F989808185FD24C0F62E0B8D10E00F5F1B
:1002E0001F4F0F731127E02E8C8DE8120CC00FB634
:1002F00007FCFACFE889F989808185FFF5CFCE0127
:100300000E943901F1CF8B8DFE01E80FF11DE35AF8
:10031000FF4FF0820B8FEA89FB898081806207C0E2
:10032000EE89FF896083E889F98980818064808310
:1003300081E090E0DF91CF911F910F91FF90EF90BE
:100340000895CF93DF93EC01888D8823C9F0EA8963
:10035000FB89808185FD05C0A889B9898C9186FDBE
:100360000FC00FB607FCF5CF808185FFF2CFA889BB
:10037000B9898C9185FFEDCFCE010E943901E7CF7D
:10038000DF91CF91089580E090E0892B29F00E94C1
:100390002F0181110C9400000895CF92DF92EF920B
:1003A000FF920F931F93CF93DF936C017A018B0120
:1003B000C0E0D0E0CE15DF0589F0D8016D918D0148
:1003C000D601ED91FC910190F081E02DC6010995D7
:1003D000892B11F47E0102C02196ECCFC701DF9179
:1003E000CF911F910F91FF90EF90DF90CF900895E4
:1003F00008952CB521602CBD2A989EBD0DB407FE32
:10040000FDCF2EB530E0322F22278EBD0DB407FE72
:10041000FDCF9EB52A9A8CB58E7F8CBDA901492B44
:10042000CA010895E8980E94F901E89A089586277C
:10043000682F62956827062E669566956025062EBC
:10044000669560256770082E892F669507946795D5
:10045000902D862706946795902586270895CF933B
:1004600080E090E00E94F90180912D01853091F5A6
:1004700080E090EB0E94F901682F80912C0181119E
:1004800004C090912701911176C0E0912C0181E088
:100490008E0F80932C01F0E0E25DFE4F608380912F
:1004A0002A0190912B010E94170290932B018093B7
:1004B0002A018091300120912C0190E0049630E0D7
:1004C000821793070CF462C080912C01873408F0E6
:1004D0005DC061C080912D0187FF1BC0E09130019C
:1004E00080912D0191E0980F90932D01ED5F8E0F7B
:1004F000E82FF0E0E25DFE4FC08180912A019091EB
:100500002B016C2F0E94170290932B0180932A01DC
:100510002EC080912D018330F1F054F48823A9F08E
:100520008130E9F480912A0190912B01C92F1AC0E2
:100530008930B9F08A3099F4C09127019091300147
:100540008DEF891B80932D010DC080912A01909120
:100550002B01C82F07C08DE092E80E94F901CAEA7A
:1005600001C0CDE280912D018F5F80932D018C2FF2
:1005700090E098540DC0E0912C0181E08E0F8093A3
:100580002C01F0E0E25DFE4F90837FCF8DE092E89A
:10059000CF910C94F901CF91089586FD05C0807E1E
:1005A000909128019F71890F80932F01E091230181
:1005B000F0912401309711F081E009958FEF9FEFC2
:1005C00090932B0180932A0180912A0190912B0115
:1005D000609127010E94170290932B0180932A01BA
:1005E00086E080932D018DE392E80C94F9018091CF
:1005F0002D01853091F58091300120912C0190E002
:10060000049630E08217930724F080912C01873400
:1006100020F184E080932D0180912A0190912B019B
:1006200090932B0180932A0180913001833430F024
:1006300081E090E090932B0180932A0180912F011B
:1006400086FF30C080912801982F9F719F3151F112
:1006500090912F0189278F7129F180912D0184308C
:10066000F9F41092300110922C018FEF9FEF9093CC
:100670002B0180932A0160912701662351F080911C
:100680002A0190912B010E94170290932B018093D5
:100690002A0185E080932D018DED92E80E94F901F9
:1006A00080E0089580912A0190912B01892B49F4D3
:1006B000E0912301F0912401309719F080E0099531
:1006C0000BC08FEF9FEFDC0180931F0190932001FF
:1006D000A0932101B093220181E0089580E090E091
:1006E0000895E7E8F1E080E0919191118F5F91E04A
:1006F000E739F907C9F708951F93CF93DF93E6E72A
:10070000F1E0DF0180E010E020E09D91992321F0ED
:10071000291710F4182F292F8F5F8031B1F7A6E722
:10072000B1E090E08D91882319F0981708F4982F84
:1007300021E0A638B207B1F780E02191291301C06A
:100740008F5F21E0E638F207C1F7823060F08091D8
:10075000A7018F5F8093AB0160E086E0DF91CF91CE
:100760001F910C94D905809175018F5F8093AB0127
:10077000612F86E00E94D9058091A7018F5F809349
:10078000AB01C7E9D1E06991662329F0611719F03F
:1007900086E00E94D90581E0C73AD807A1F7DF912A
:1007A000CF911F9108950F931F93CF938C01C62F64
:1007B00060FF14C0FC018081882311F08D5F01C0AF
:1007C00082E160E00E94CB06F8018081882311F06D
:1007D0008D5F01C082E161E00E949B06C1FF14C0F1
:1007E000F8018081882311F0835F01C083E160E01C
:1007F0000E94CB06F8018081882311F0835F01C03D
:1008000083E161E00E949B06C095F8018481C823C2
:10081000C483CF911F910F9108951F93CF93DF93BE
:10082000EC01162F60FF12C08881882311F08D5FC4
:1008300001C082E160E00E949B068881882311F05C
:100840008D5F01C082E161E00E94CB0611FF12C002
:100850008881882311F0835F01C083E160E00E94FA
:100860009B068881882311F0835F01C083E161E0EA
:100870000E94CB068C81182B1C83DF91CF911F9196
:100880000895CF93C82F8093860161E08DE493E0B3
:10089000C0FF03C00E940D0402C00E94D30362E0A7
:1008A0008DE493E0C1FF03C00E940D0402C00E94CA
:1008B000D30361E084E593E0C2FF03C00E940D040E
:1008C00002C00E94D30362E084E593E0C3FF03C04B
:1008D000CF910C940D04CF910C94D30380917501AA
:1008E00090E02091A701821B91090196039710F4D3
:1008F00084E001C085E00C9441040E94E50B8F92D6
:100900009F92AF92BF92CF92DF92EF92FF921F938E
:10091000CF93DF93C6E8D1E01FE01C1B8C2F810F23
:100920000E9441041A920E94A8054B015C0184E6D2
:10093000C82ED12CE12CF12C0E94A805DC01CB01A2
:1009400088199909AA09BB09883E9340A105B105F8
:1009500058F081E0C81AD108E108F10828EE820EAB
:1009600023E0921EA11CB11CC114D104E104F104C6
:1009700019F781E0C637D80789F61092AC021092B9
:10098000AB0280E1E7E9F1E0A7E8B1E001900D9268
:100990008A95E1F71092A7011092750180E0DF912E
:1009A000CF911F91FF90EF90DF90CF90BF90AF90CD
:1009B0009F908F900C9441041F920F920FB60F924C
:1009C00011242F933F934F935F936F937F938F9354
:1009D0009F93AF93BF93EF93FF938DEA92E00E94B2
:1009E0003901FF91EF91BF91AF919F918F917F91CD
:1009F0006F915F914F913F912F910F900FBE0F908C
:100A00001F9018951F920F920FB60F9211242F93DB
:100A10008F939F93EF93FF93E091BD02F091BE02FD
:100A20008081E091C302F091C40282FD12C09081E6
:100A30008091C6028F5F8F732091C702821751F099
:100A4000E091C602F0E0E355FD4F958F8093C6021A
:100A500001C08081FF91EF919F918F912F910F9015
:100A60000FBE0F901F901895CF93DF93FC016491F8
:100A7000EC012196662361F0E091AD02F091AE02A7
:100A80000190F081E02D8DEA92E00995CE01EECF44
:100A9000DF91CF9108950895009769F0FC010190CE
:100AA0000020E9F73197AF01481B590BBC018DEAD3
:100AB00092E00C94CD0180E090E008958BE191E00C
:100AC0000C944C058F929F92AF92BF920F931F93FD
:100AD000CF93DF93CDB7DEB7A1970FB6F894DEBF03
:100AE0000FBECDBF19A2423008F44AE08E010F5D5F
:100AF0001F4F842E912CA12CB12CA50194010E9492
:100B0000950BE62FB901CA0101501109EA3014F41E
:100B1000E05D01C0E95CD801EC93232B242B252B4D
:100B200061F7C8010E944C05A1960FB6F894DEBF8C
:100B30000FBECDBFDF91CF911F910F91BF90AF90AE
:100B40009F908F9008954AE00C9462050C944C0598
:100B50003FB7F8948091650390916603A091670375
:100B6000B091680326B5A89B05C02F3F19F00196E8
:100B7000A11DB11D3FBFBA2FA92F982F8827820F23
:100B8000911DA11DB11DBC01CD0142E0660F771F73
:100B9000881F991F4A95D1F708952FB7F89460914F
:100BA00061037091620380916303909164032FBF8E
:100BB0000895CF93482FC62F2091AC0230E0C90191
:100BC00001966AE070E00E94B70B6091AB0270E0A2
:100BD0008617970781F40E945E050E94CD050E944A
:100BE000A30586E191E00E94A6058AE791E00E94B4
:100BF000340580E02BC0F901EE0FFF1FE159FD4FD6
:100C00006C2F70E071836083F901EE0FFF1FED57C9
:100C1000FD4F50E051834083F901EE0FFF1FE9566D
:100C2000FD4F41E050E05183408392E1929FD0011B
:100C3000939FB00D1124A554BE4FE9EAF1E0019055
:100C40000D929A95E1F78093AC0281E0CF910895DF
:100C50001F920F920FB60F9211242F933F938F93F1
:100C60009F93AF93BF938091610390916203A09192
:100C70006303B09164033091600323E0230F2D37A9
:100C800020F40196A11DB11D05C026E8230F029690
:100C9000A11DB11D209360038093610390936203B3
:100CA000A0936303B09364038091650390916603FE
:100CB000A0916703B09168030196A11DB11D8093B7
:100CC000650390936603A0936703B0936803BF9195
:100CD000AF919F918F913F912F910F900FBE0F90E9
:100CE0001F901895833081F028F4813099F082307C
:100CF000A1F008958730A9F08830B9F08430D1F49C
:100D0000809180008F7D03C0809180008F778093D9
:100D10008000089584B58F7702C084B58F7D84BD2F
:100D200008958091B0008F7703C08091B0008F7DCF
:100D30008093B00008951F93CF93DF93282F30E066
:100D4000F901EA59FE4F8491F901EE5AFE4FD49110
:100D5000F901E25CFE4FC491CC23C9F0162F81113A
:100D60000E947206EC2FF0E0EE0FFF1FEC5CFE4FCE
:100D7000A591B4918FB7F894111105C09C91ED2FF6
:100D8000E095E92302C0EC91ED2BEC938FBFDF914E
:100D9000CF911F910895CF93DF9390E0FC01EE5A1D
:100DA000FE4F2491FC01E25CFE4F8491882361F1A7
:100DB00090E0880F991FFC01E65DFE4FC591D4912C
:100DC000FC01EC5CFE4FA591B491611109C09FB785
:100DD000F8948881209582238883EC912E230BC080
:100DE000623061F49FB7F8943881822F8095832315
:100DF0008883EC912E2B2C939FBF06C08FB7F8945D
:100E0000E8812E2B28838FBFDF91CF9108951F9209
:100E10000F920FB60F9211242F933F934F935F932E
:100E20006F937F938F939F93AF93BF93EF93FF93B2
:100E3000E0910201F09103010995FF91EF91BF91BB
:100E4000AF919F918F917F916F915F914F913F9162
:100E50002F910F900FBE0F901F9018951F920F9219
:100E60000FB60F9211242F933F934F935F936F937D
:100E70007F938F939F93AF93BF93EF93FF93E091F3
:100E80000001F09101010995FF91EF91BF91AF91A0
:100E90009F918F917F916F915F914F913F912F9192
:100EA0000F900FBE0F901F901895789484B58260B4
:100EB00084BD84B5816084BD85B5826085BD85B5FE
:100EC000816085BD80916E00816080936E0010927C
:100ED00081008091810082608093810080918100F7
:100EE0008160809381008091800081608093800088
:100EF0008091B10084608093B1008091B0008160E6
:100F00008093B00080917A00846080937A00809111
:100F10007A00826080937A0080917A008160809369
:100F20007A0080917A00806880937A001092C100E4
:100F300080E290E00E948D0B8F718093A80181E286
:100F400090E00E948D0B80932901E091BD02F09109
:100F5000BE0282E08083E091BD02F091BE02108269
:100F6000E091B902F091BA021082E091BB02F091D7
:100F7000BC0280E180831092C502E091C102F09131
:100F8000C20286E08083E091BF02F091C0028081BE
:100F900080618083E091BF02F091C002808188600F
:100FA0008083E091BF02F091C002808180688083DD
:100FB000E091BF02F091C00280818F7D808380E14B
:100FC00097E2A0E0B0E08093B1029093B202A093C8
:100FD000B302B093B4020E945E050E94CD050E9448
:100FE000A30586E191E00E94A60587E990E00E94B2
:100FF00034050E945E050E94CD050E94A30586E18E
:1010000091E00E94A6058DE890E00E943405609171
:10101000A80170E080E090E04AE00E94620589E16A
:1010200091E00E94A6050E945E050E94CD050E94E7
:10103000A30586E191E00E94A60580E890E00E9469
:1010400034056091290170E080E090E04AE00E9460
:10105000620589E191E00E94A6050E947F048091CB
:1010600029019091A801909328018093270180E4A1
:1010700096E090932601809325012A9A229A61E0B6
:101080008AE00E949B0661E08AE00E94CB0661E054
:101090008BE00E94CB0660E08CE00E94CB0661E012
:1010A0008DE00E94CB0680E58CBD8DB581608DBD45
:1010B00060E082E00E94CB0661E082E00E949B0635
:1010C00080E090E00E94F90185E092E80E94F90139
:1010D00080E098EB0E94F901C8E6D1E004E511E058
:1010E00060E4E62E61E0F62EFE018491F801B490F2
:1010F000F701D490D11005C080E090E00E94F90182
:10110000F3CF81110E9472068D2D90E0880F991FF8
:101110008A589F4FFC01A591B4918C91B82261F33C
:1011200087EE90E80E94F9018091250190912601B7
:1011300090560E94F90186E096EC0E94F90182EA3D
:1011400094E90E94F9018CEA92EC0E94F901C091A5
:101150002701CC2341F083E89AEC0E94F9018C2FFF
:1011600090E09E6C06C08BE89AEC0E94F9018DE23B
:101170009EEC0E94F90183E894EC0E94F90180E55D
:1011800098E90E94F90187E79CEC0E94F90180E050
:1011900090EE0E94F90180E098EC0E94F90189E448
:1011A00090EC0E94F90184E080932D018091280148
:1011B0008F7199F08FE292E090930101809300018A
:1011C000809169008C7F80936900E89A30E1F32E6A
:1011D00042E1E42E0AE010E027C0E8988BE495E0B5
:1011E0009093010180930001F1CF80912A019091A9
:1011F0002B01892BF1F080915F03882309F444C00F
:10120000C0915D03D0915E030E94CD05CE01861B87
:10121000970B8136EAEE9E0728F0819510925F03C6
:10122000811134C00E94C3010E94F7028111DDCFF9
:10123000E2CF4091300150E061E371E089EA91E052
:101240000E94EA0B80912F0185FF07C0C0912F01FA
:10125000C095CC1FCC27CC1F01C0C0E00E94F70274
:10126000CC2309F43FC02091A90190914A038091B9
:10127000AA0132E030933001209331019093320182
:10128000806C0E94CD022EC080E0C8CFC091AB021E
:101290008091AC02C81731F2D0E0FE01EE0FFF1FC3
:1012A000E956FD4FA080B180FE01EE0FFF1FE1590E
:1012B000FD4FD080FE01EE0FFF1FED57FD4F9080D8
:1012C00080912D01853019F00E94F702F9CF8091AD
:1012D0002C018111F9CF80E090E00E94120290FF72
:1012E00093C1F2CF2091AA01E7E9F1E080E03191CA
:1012F000332311F091E0231390E0892B91E0E73A3A
:10130000F907A9F7811103C02F3109F074CF0E94AA
:101310005E050E94CD050E94A30586E191E00E9432
:10132000A60587E191E00E943405E091A9018E2F86
:1013300090E08730910508F058C1FC01EC5CFF4F4C
:101340000C94CB0B0E945E050E94CD050E94A30564
:1013500086E191E00E94A60581E191E00E943405BA
:101360000E947F0448CF0E945E050E94CD050E9426
:10137000A30586E191E00E94A6058CE091E00E9421
:1013800034050E945E050E94CD050E94A30586E1FA
:1013900091E00E94A6058BEF90E00E9434056091D9
:1013A000A70170E080E090E04AE00E94620589E1D8
:1013B00091E00E94A605C091A801E4E1CE9FE00162
:1013C000112481E0209709F480E080935F03882353
:1013D00009F411CF0E94CD052197C60FD71FD093D6
:1013E0005E03C0935D0307CF0E945E050E94CD059A
:1013F0000E94A30586E191E00E94A60589EE90E097
:101400000E9434056091AB0170E080E090E04AE01A
:101410000E94620589E191E00E94A6058091AB01DE
:101420004DC00E945E050E94CD050E94A30586E185
:1014300091E00E94A60581ED90E00E943405CBEA80
:10144000D1E0699170E080E090E04AE00E9462059E
:1014500089E191E00E94A605F1E0CB3BDF0789F727
:10146000EBEAF1E0A7E9B1E08F2D01900D928A95AA
:10147000E1F7EBEAF1E0A7E8B1E08F2D01900D92E2
:101480008A95E1F7B8CE809186018111B4CE0E9491
:101490005E050E94CD050E94A30586E191E00E94B1
:1014A000A6058AEC90E00E94340560E084E00E948A
:1014B000D9050E947103823020F081E00E9441042E
:1014C0009ACE82E00E9441048091A7018F5F8093B1
:1014D000AB0160E085E00E94D9058DCE0E945E05DB
:1014E0000E94CD050E94A30586E191E00E94A60519
:1014F00088EC90E00E943405809186018230A8F04B
:10150000823009F078CE0E945E050E94CD050E94CF
:10151000A30586E191E00E94A6058EEB90E00E9473
:10152000340583E00E94410451C08091AB01909149
:10153000A701981740F48093A701E091AA01F0E079
:10154000EA58FE4F80830E947103823068F40E9443
:101550007103813009F04FCE8091A7018F5F809396
:10156000AB01E7E8F1E00EC08091AA01E7E8F1E005
:101570009081981301C01082319621E0E739F2077B
:10158000B9F7E5CFC191C11105C081E0E739F8078E
:10159000C9F7CC2D6C2F85E00E94D90582E00E940E
:1015A0004104CC2E28CE0E945E050E94CD050E94EB
:1015B000A30586E191E00E94A60586EB90E00E94DB
:1015C000340580918601823009F015CEC091AB01BF
:1015D000C09375010E946E048091A7018C1710F4CE
:1015E000C093A7010E947C0306CE0E945E050E9464
:1015F000CD050E94A30586E191E00E94A60580EA40
:1016000090E00E943405F7CDEC9EB001ED9E700D88
:101610001124EB01C554DE4F8DE092E80E941202C6
:1016200084E080932D01988290904A039982A501CD
:1016300055274E5F5F4FBE0181E391E00E94EA0BA8
:10164000A394A394A0923001DD2019F08D2D806425
:1016500001C0892D0E94CD028091AB0290E00196DD
:10166000B8010E94B70B8093AB02DCCDCF93DF9320
:10167000EDEAF2E01382128288EE93E0A0E0B0E09F
:1016800084839583A683B78388E091E091838083E8
:1016900085EC90E09587848784EC90E09787868737
:1016A00080EC90E0918B808B81EC90E0938B828B2F
:1016B00082EC90E0958B848B86EC90E0978B868B08
:1016C000118E128E138E148E10925F03EDE4F3E0F0
:1016D00082E08083138214821582168283E08783DE
:1016E00012861386148615861786168681E293E085
:1016F0000E948D0BC82F80E293E00E948D0BD82FA3
:1017000080E290E00E948D0BEAE4F3E08F71808329
:10171000D183C283DF91CF910895F999FECF92BD15
:1017200081BDF89A992780B50895A1E21A2EAA1BC7
:10173000BB1BFD010DC0AA1FBB1FEE1FFF1FA21781
:10174000B307E407F50720F0A21BB30BE40BF50B7E
:10175000661F771F881F991F1A9469F76095709507
:10176000809590959B01AC01BD01CF01089597FB39
:10177000072E16F4009407D077FD09D00E94D10BF4
:1017800007FC05D03EF4909581959F4F0895709584
:1017900061957F4F0895EE0FFF1F0590F491E02DA6
:1017A0000994AA1BBB1B51E107C0AA1FBB1FA617A8
:1017B000B70710F0A61BB70B881F991F5A95A9F7FA
:1017C00080959095BC01CD01089581E090E0F8945A
:1017D0000C94F30BFB01DC0102C001900D9241500F
:0A17E0005040D8F70895F894FFCFA9
:1017EA004B054B05000000005A01CD01F200A10192
:0E17FA002301010115016D733A20000D0A0054
:00000001FF
